:020000040000FA
:100000000C9434000C9451000C9451000C94510049
:100010000C9451000C9451000C9451000C9451001C
:100020000C9451000C9451000C9451000C9451000C
:100030000C9451000C9451000C9451000C945100FC
:100040000C947E000C9451000C94FE000C94510012
:100050000C94D5000C9451000C9451000C94510058
:100060000C9451000C94510011241FBECFEFD8E026
:10007000DEBFCDBF21E0A6E1B1E001C01D92A839ED
:10008000B207E1F711E0A0E0B1E0E8EDFBE002C06B
:1000900005900D92A631B107D9F70E9430010C945A
:1000A000EA050C940000909197019F31C8F490915B
:1000B00097019F5F292F30E02F5F3F4F40919601BE
:1000C00042171306D9F320919601921741F0E0915F
:1000D0009701F0E0EA58FE4F8083909397010895CE
:1000E00090E0E8CF2FB7F89460915B0170915C01CC
:1000F00080915D0190915E012FBF08951F920F9234
:100100000FB60F9211248F939F93AF93BF9380915B
:100110005B0190915C01A0915D01B0915E0101963F
:10012000A11DB11D80935B0190935C01A0935D01C3
:10013000B0935E0180915A0193E0980F9D37F0F4DF
:1001400090935A018091560190915701A0915801C6
:10015000B09159010196A11DB11D80935601909354
:100160005701A0935801B0935901BF91AF919F914E
:100170008F910F900FBE0F901F9018958A57809304
:100180005A0180915B0190915C01A0915D01B09159
:100190005E010196A11DB11D80935B0190935C01EE
:1001A000A0935D01B0935E01CDCF1F920F920FB669
:1001B0000F9211248F939F93EF93FF939091970148
:1001C00080919601981789F0E0919601F0E0EA5845
:1001D000FE4F9081809196018F5F809396018032CF
:1001E00010F0109296019093C600FF91EF919F91AD
:1001F0008F910F900FBE0F901F9018951F920F9226
:100200000FB60F9211242F938F939F93EF93FF9329
:100210008091C00082FF0CC08091C600FF91EF91D9
:100220009F918F912F910F900FBE0F901F90189557
:100230009091C60080915F018F3380F480915F01BF
:100240008F5F20916001281749F3E0915F01F0E092
:10025000EA5EFE4F908380935F01E0CF80E0F1CFB4
:10026000CF93DF93CDB7DEB72A970FB6F894DEBFF2
:100270000FBECDBFF89482E880937A0083E084BDFE
:1002800085BD80916E00816080936E0081E08093D7
:1002900080009BE0909381008093B00084E0809385
:1002A000B1001092C10078941092C5008FEC809339
:1002B000C40082E08093C00088ED8093C10086E096
:1002C0008093C2001092600110925F01109296011B
:1002D00010929701559A5D9884B58F7D84BD5D9A83
:1002E00052985A985A9A569A5E9884B58F7784BDD8
:1002F0005E988FB7F89498E19093600098E290939D
:1003000060008FBF9AE0492E512C612C712C20E0A7
:10031000222E20E0322E11E04A994EC080916601D3
:1003200081111FC00E94720060936201709363018B
:1003300080936401909365011093660180910A0196
:1003400090910B0181309105E1F18230910509F422
:100350009CC1892B09F079C084B58F7784BD5E9AE2
:1003600074C00E947200C0906201D0906301E0905E
:100370006401F09065016C197D098E099F09693C43
:10038000710581059105D0F2809161018111D6CF6F
:100390008091020190910301892B49F421E030E022
:1003A000309303012093020110936101C7CF109293
:1003B000030110920201F8CF1092660110926101C0
:1003C000BDCF0E947200C0906901D0906A01E09098
:1003D0006B01F0906C016C197D098E099F09693CD5
:1003E00071058105910508F42CC180916801811186
:1003F00028C10E9472006093690170936A01809322
:100400006B0190936C018091670131E083278093A9
:10041000670194B59F7794BD882309F410C15E9A53
:1004200080916701811109C08091000190910101C3
:1004300001979093010180930001809100019091B8
:100440000101892B11F410936801809102019091B0
:100450000301009709F04DC18091040190910501BD
:10046000019709F03DC184B58F7D84BD5D98E2E0C0
:10047000F0E0F0930B01E0930A010E947200C0903B
:100480007201D0907301E0907401F09075016C19C5
:100490007D098E099F09653F71408105910508F42A
:1004A0005BC00E947200609372017093730180932D
:1004B0007401909375018AE0E82EF12C812C912C27
:1004C000540120E420937C0080917A008064809322
:1004D0007A0080917A0086FDFCCF6091780070915F
:1004E000790090E080E00E948F0320E030E040EA55
:1004F00050E40E94F00320E030E040E85AE30E941C
:10050000F00320E138E549EB5DE30E941B059B0108
:10051000AC01C501B4010E94AF044B015C0131E0A4
:10052000E31AF10871F620E030E040E251E40E9465
:100530001B056B017C0120E030E040E85FE30E9496
:10054000C30518160CF0E6C0C701B6010E948D0560
:100550007093090160930801C0900801D0900901CF
:100560000D2C000CEE08FF08F7FE0BC08DE20E9478
:100570005300F094E094D094C094C11CD11CE11CB1
:10058000F11CC701B601FE0131967F0100E04F0169
:10059000A30192010E94C805F70161937F01B9018F
:1005A000CA01611571058105910521F00F5F0A30BF
:1005B00079F700E0F401E00FF11D07FDFA95808165
:1005C000805D0E9453000150A8F78DE00E94530007
:1005D0008AE00E9453008091C00085FFFCCF90917B
:1005E000970180919601981789F0E0919601F0E0CB
:1005F000EA58FE4F9081809196018F5F809396011B
:10060000803210F0109296019093C600209108015C
:10061000309109018091060190910701281739074F
:1006200034F421E030E03093050120930401A895D3
:100630002114310409F470CE0E9400006DCE5E9842
:10064000EFCE0E9472006C197D098E099F09693EE8
:1006500073408105910508F4F8CE809168018823E4
:1006600009F4F3CE0E9472006093690170936A01ED
:1006700080936B0190936C011092680122E030E04E
:100680003093010120930001E0CE0E947200C090DF
:100690006E01D0906F01E0907001F09071016C19C3
:1006A0007D098E099F09613273408105910508F427
:1006B000CCCE0E94720060936E0170936F018093A4
:1006C00070019093710180916D0191E08927809371
:1006D0006D0194B59F7794BD811141CE5E98B5CEE2
:1006E00084B58F7D84BD5D9A10920B0110920A0132
:1006F000C4CE8130910509F0C0CE90930B01809358
:100700000A01109205011092040184B58F7D84BD09
:100710005D9AB3CE10920901109208011DCFE894A2
:1007200009C097FB3EF490958095709561957F4F39
:100730008F4F9F4F9923A9F0F92F96E9BB279395E7
:10074000F695879577956795B795F111F8CFFAF4F7
:10075000BB0F11F460FF1BC06F5F7F4F8F4F9F4F28
:1007600016C0882311F096E911C0772321F09EE886
:10077000872F762F05C0662371F096E8862F70E0EC
:1007800060E02AF09A95660F771F881FDAF7880FC6
:100790009695879597F90895990F0008550FAA0B1C
:1007A000E0E8FEEF16161706E807F907C0F0121684
:1007B0001306E407F50798F0621B730B840B950B87
:1007C00039F40A2661F0232B242B252B21F40895DC
:1007D0000A2609F4A140A6958FEF811D811D089579
:1007E0000E9403040C9474040E94660438F00E9472
:1007F0006D0420F0952311F00C945D040C946304B7
:1008000011240C94A8040E94850470F3959FC1F3F1
:10081000950F50E0551F629FF001729FBB27F00DAE
:10082000B11D639FAA27F00DB11DAA1F649F662703
:10083000B00DA11D661F829F2227B00DA11D621F52
:10084000739FB00DA11D621F839FA00D611D221F0C
:10085000749F3327A00D611D231F849F600D211DF0
:10086000822F762F6A2F11249F5750409AF0F1F073
:1008700088234AF0EE0FFF1FBB1F661F771F881FDC
:1008800091505040A9F79E3F510580F00C945D04B3
:100890000C94A8045F3FE4F3983ED4F386957795D3
:1008A0006795B795F795E7959F5FC1F7FE2B880F82
:1008B000911D9695879597F9089597F99F6780E818
:1008C00070E060E008959FEF80EC089500240A94A2
:1008D0001616170618060906089500240A9412161B
:1008E0001306140605060895092E0394000C11F44E
:1008F000882352F0BB0F40F4BF2B11F460FF04C0FB
:100900006F5F7F4F8F4F9F4F089557FD9058440F53
:10091000551F59F05F3F71F04795880F97FB991F5E
:1009200061F09F3F79F0879508951216130614061B
:10093000551FF2CF4695F1DF08C0161617061806A8
:10094000991FF1CF86957105610508940895E89483
:10095000BB2766277727CB0197F908955058BB2707
:10096000AA270E94C6040C9474040E94660438F0FE
:100970000E946D0420F039F49F3F19F426F40C9482
:1009800063040EF4E095E7FB0C945D04E92F0E94EC
:10099000850458F3BA17620773078407950720F098
:1009A00079F4A6F50C94A7040EF4E0950B2EBA2F5B
:1009B000A02D0B01B90190010C01CA01A001112465
:1009C000FF27591B99F0593F50F4503E68F11A1611
:1009D000F040A22F232F342F4427585FF3CF4695A2
:1009E00037952795A795F0405395C9F77EF41F16C4
:1009F000BA0B620B730B840BBAF09150A1F0FF0F8E
:100A0000BB1F661F771F881FC2F70EC0BA0F621F79
:100A1000731F841F48F4879577956795B795F79569
:100A20009E3F08F0B0CF9395880F08F09927EE0FFE
:100A30009795879508950E942F050C9474040E9441
:100A40006D0458F00E94660440F029F45F3F29F0DD
:100A50000C945D0451110C94A8040C9463040E943E
:100A6000850468F39923B1F3552391F3951B550B36
:100A7000BB27AA2762177307840738F09F5F5F4F71
:100A8000220F331F441FAA1FA9F335D00E2E3AF0B0
:100A9000E0E832D091505040E695001CCAF72BD0C8
:100AA000FE2F29D0660F771F881FBB1F2617370719
:100AB0004807AB07B0E809F0BB0B802DBF01FF274B
:100AC00093585F4F3AF09E3F510578F00C945D04C7
:100AD0000C94A8045F3FE4F3983ED4F38695779591
:100AE0006795B795F7959F5FC9F7880F911D969504
:100AF000879597F90895E1E0660F771F881FBB1F60
:100B0000621773078407BA0720F0621B730B840B0C
:100B1000BA0BEE1F88F7E09508950E94940568943B
:100B2000B1110C94A80408950E948D0488F09F5779
:100B300098F0B92F9927B751B0F0E1F0660F771F01
:100B4000881F991F1AF0BA95C9F714C0B13091F0F7
:100B50000E94A704B1E008950C94A704672F782F92
:100B60008827B85F39F0B93FCCF3869577956795BC
:100B7000B395D9F73EF490958095709561957F4F28
:100B80008F4F9F4F08950E94CC0308F48FEF089574
:100B9000A1E21A2EAA1BBB1BFD010DC0AA1FBB1F81
:100BA000EE1FFF1FA217B307E407F50720F0A21BF3
:100BB000B30BE40BF50B661F771F881F991F1A9460
:100BC00069F760957095809590959B01AC01BD018A
:100BD000CF010895F894FFCF02000000000010003C
:0E0BE0001500000000000000000000000000F2
:107800000C94343C0C94513C0C94513C0C94513CE1
:107810000C94513C0C94513C0C94513C0C94513CB4
:107820000C94513C0C94513C0C94513C0C94513CA4
:107830000C94513C0C94513C0C94513C0C94513C94
:107840000C94513C0C94513C0C94513C0C94513C84
:107850000C94513C0C94513C0C94513C0C94513C74
:107860000C94513C0C94513C11241FBECFEFD8E036
:10787000DEBFCDBF11E0A0E0B1E0ECE9FFE702C060
:1078800005900D92A230B107D9F712E0A2E0B1E065
:1078900001C01D92AD30B107E1F70E942D3D0C945F
:1078A000CC3F0C94003C982F959595959595959582
:1078B000905D8F708A307CF0282F295A8091C0000B
:1078C00085FFFCCF9093C6008091C00085FFFCCF60
:1078D0002093C6000895282F205DF0CF982F809127
:1078E000C00085FFFCCF9093C6000895EF92FF92F1
:1078F0000F931F93EE24FF2487018091C00087FD22
:1079000017C00894E11CF11C011D111D81E4E8164B
:1079100082E4F8068FE0080780E0180770F3E09132
:107920000401F091050109958091C00087FFE9CF1E
:107930008091C6001F910F91FF90EF9008950E94D3
:10794000763C982F8091C00085FFFCCF9093C600B5
:1079500091362CF490330CF09053892F089597555D
:10796000892F08951F930E949F3C182F0E949F3CCF
:107970001295107F810F1F9108951F93182F882350
:1079800021F00E94763C1150E1F71F9108951F935A
:10799000182F0E94763C803249F0809103018F5F5E
:1079A000809303018530C1F01F9108958091C0003C
:1079B00085FFFCCF84E18093C6008091C00085FFE5
:1079C000FCCF1093C6008091C00085FFFCCF80E102
:1079D0008093C6001F910895E0910401F091050184
:1079E00009951F9108950E94763C803241F0809164
:1079F00003018F5F80930301853081F008958091AA
:107A0000C00085FFFCCF84E18093C6008091C00058
:107A100085FFFCCF80E18093C6000895E0910401CA
:107A2000F09105010995089540E951E08823A1F0FE
:107A30002D9A28EE33E0FA013197F1F721503040CA
:107A4000D1F72D9828EE33E0FA013197F1F7215064
:107A50003040D1F7815061F708953F924F925F9285
:107A60006F927F928F929F92AF92BF92CF92DF924E
:107A7000EF92FF920F931F93CF93DF93000080E16B
:107A80008093C4001092C50088E18093C10086E015
:107A90008093C2005098589A259A81E00E94143D24
:107AA00024E1F22E9EE1E92E85E9D82E0FE0C02ECA
:107AB00010E1B12EAA24A394B1E49B2EA6E58A2E50
:107AC000F2E57F2EE0E26E2E79E4572E63E5462E36
:107AD00050E5352E0E94763C8033B1F18133B9F107
:107AE000803409F46FC0813409F476C0823409F41B
:107AF00085C0853409F488C0803531F1823521F1A3
:107B0000813511F1853509F485C0863509F48DC0BC
:107B1000843609F496C0843709F403C1853709F423
:107B200072C1863709F466C0809103018F5F80932C
:107B30000301853079F6E0910401F0910501099582
:107B40000E94763C803351F60E94F33CC3CF0E94E2
:107B5000763C803249F78091C00085FFFCCFF092DF
:107B6000C6008091C00085FFFCCF9092C600809136
:107B7000C00085FFFCCF8092C6008091C00085FFC9
:107B8000FCCF7092C6008091C00085FFFCCF609250
:107B9000C6008091C00085FFFCCF5092C600809146
:107BA000C00085FFFCCF4092C6008091C00085FFD9
:107BB000FCCF3092C6008091C00085FFFCCFB09210
:107BC000C60088CF0E94763C863808F4BDCF0E945C
:107BD000763C0E94F33C7ECF0E94763C803809F4CC
:107BE0009CC0813809F40BC1823809F43CC1883942
:107BF00009F48FC080E00E94C73C6CCF84E10E94F2
:107C0000BD3C0E94F33C66CF85E00E94BD3C0E94D3
:107C1000F33C60CF0E94763C809306010E94763C44
:107C2000809307010E94F33C55CF0E94763C80333D
:107C300009F41DC183E00E94BD3C80E00E94C73C66
:107C400049CF0E94763C809309020E94763C809343
:107C5000080280910C028E7F80930C020E94763C79
:107C6000853409F415C18091080290910902892B8D
:107C700089F000E010E00E94763CF801E85FFE4FDA
:107C800080830F5F1F4F80910802909109020817AF
:107C9000190788F30E94763C803209F045CF809125
:107CA0000C0280FF01C16091060170910701660F0F
:107CB000771F7093070160930601A0910802B091AD
:107CC00009021097C9F0E8E0F1E09B01AD014E0F09
:107CD0005F1FF999FECF32BD21BD819180BDFA9A17
:107CE000F99A2F5F3F4FE417F50799F76A0F7B1F4B
:107CF00070930701609306018091C00085FFFCCF5F
:107D0000F092C6008091C00085FFFCCFB092C60003
:107D1000E1CE83E00E94C73CDDCE82E00E94C73CFA
:107D2000D9CE0E94763C809309020E94763C8093D3
:107D300008028091060190910701880F991F909386
:107D40000701809306010E94763C853409F4A6C0A1
:107D500080910C028E7F80930C020E94763C8032D0
:107D600009F0B8CE8091C00085FFFCCFF092C6002C
:107D7000609108027091090261157105B9F140E046
:107D800050E080910C02A82FA170B82FB27011C0E2
:107D9000BB2309F45CC0E0910601F0910701319624
:107DA000F0930701E09306014F5F5F4F46175707B7
:107DB000E8F4AA2369F3F999FECF209106013091E6
:107DC000070132BD21BDF89A90B58091C00085FFB2
:107DD000FCCF9093C6002F5F3F4F30930701209355
:107DE00006014F5F5F4F4617570718F38091C00099
:107DF00085FDE5CE8091C00085FFF8CFE0CE81E023
:107E00000E94C73C67CE0E94763C803209F08CCE3F
:107E10008091C00085FFFCCFF092C6008091C00029
:107E200085FFFCCFE092C6008091C00085FFFCCFAB
:107E3000D092C6008091C00085FFFCCFC092C600E2
:107E40008091C00085FFFCCFB092C60043CEE09188
:107E50000601F091070194918091C00085FFFCCF4D
:107E60009093C6009CCF80E10E94C73C33CE0E9415
:107E7000763C0E94763C182F0E94763C112309F430
:107E800083C0113009F484C08FE00E94C73C22CE29
:107E900080910C02816080930C02E5CE80910C02EF
:107EA000816080930C0259CF809107018823880F4D
:107EB000880B8A2180930B02809106019091070123
:107EC000880F991F90930701809306018091080203
:107ED00080FF09C080910802909109020196909359
:107EE000090280930802F894F999FECF1127E091D6
:107EF0000601F0910701C8E0D1E08091080290915D
:107F00000902103091F40091570001700130D9F34B
:107F100003E000935700E89500915700017001308D
:107F2000D9F301E100935700E89509901990009169
:107F3000570001700130D9F301E000935700E89534
:107F40001395103498F011270091570001700130FB
:107F5000D9F305E000935700E895009157000170B0
:107F60000130D9F301E100935700E895329602976A
:107F700009F0C7CF103011F00296E5CF112480919F
:107F8000C00085FFB9CEBCCE8EE10E94C73CA2CD19
:0E7F900085E90E94C73C9ECDF894FFCF80008B
:00000001FF
